{
  "_format": "hh-sol-artifact-1",
  "contractName": "AuctionProtocol",
  "sourceName": "contracts/auction/Auction.sol",
  "abi": [
    {
      "inputs": [
        {
          "internalType": "address",
          "name": "treasury",
          "type": "address"
        },
        {
          "internalType": "address",
          "name": "initialNodeAddress",
          "type": "address"
        },
        {
          "internalType": "string",
          "name": "initNodeUrl",
          "type": "string"
        },
        {
          "internalType": "uint128",
          "name": "genesis",
          "type": "uint128"
        }
      ],
      "stateMutability": "nonpayable",
      "type": "constructor"
    },
    {
      "anonymous": false,
      "inputs": [
        {
          "indexed": false,
          "internalType": "address",
          "name": "treasury",
          "type": "address"
        },
        {
          "indexed": false,
          "internalType": "address",
          "name": "defaultProcessor",
          "type": "address"
        },
        {
          "indexed": false,
          "internalType": "string",
          "name": "defaultProcessorUrl",
          "type": "string"
        },
        {
          "indexed": false,
          "internalType": "uint128",
          "name": "initialBlockNumber",
          "type": "uint128"
        },
        {
          "indexed": false,
          "internalType": "uint128",
          "name": "minOutbid",
          "type": "uint128"
        },
        {
          "indexed": false,
          "internalType": "uint16",
          "name": "slotDeadline",
          "type": "uint16"
        }
      ],
      "name": "AuctionProtocolCreated",
      "type": "event"
    },
    {
      "anonymous": false,
      "inputs": [
        {
          "indexed": true,
          "internalType": "uint128",
          "name": "slot",
          "type": "uint128"
        },
        {
          "indexed": false,
          "internalType": "uint128",
          "name": "bidAmount",
          "type": "uint128"
        },
        {
          "indexed": true,
          "internalType": "address",
          "name": "bidder",
          "type": "address"
        }
      ],
      "name": "NewBid",
      "type": "event"
    },
    {
      "anonymous": false,
      "inputs": [
        {
          "indexed": true,
          "internalType": "address",
          "name": "node",
          "type": "address"
        },
        {
          "indexed": false,
          "internalType": "string",
          "name": "nodeUrl",
          "type": "string"
        }
      ],
      "name": "NewNode",
      "type": "event"
    },
    {
      "anonymous": false,
      "inputs": [
        {
          "indexed": true,
          "internalType": "uint128",
          "name": "slotNumber",
          "type": "uint128"
        },
        {
          "indexed": false,
          "internalType": "uint128",
          "name": "refundAmount",
          "type": "uint128"
        },
        {
          "indexed": true,
          "internalType": "address",
          "name": "bidder",
          "type": "address"
        }
      ],
      "name": "NewRefund",
      "type": "event"
    },
    {
      "anonymous": false,
      "inputs": [
        {
          "indexed": false,
          "internalType": "uint16",
          "name": "slotDeadline",
          "type": "uint16"
        }
      ],
      "name": "NewSlotDeadline",
      "type": "event"
    },
    {
      "anonymous": false,
      "inputs": [
        {
          "indexed": false,
          "internalType": "uint128",
          "name": "slotNumber",
          "type": "uint128"
        },
        {
          "indexed": false,
          "internalType": "address",
          "name": "validator",
          "type": "address"
        },
        {
          "indexed": false,
          "internalType": "string",
          "name": "nodeUrl",
          "type": "string"
        }
      ],
      "name": "NewValidator",
      "type": "event"
    },
    {
      "inputs": [],
      "name": "BLOCKS_PER_SLOT",
      "outputs": [
        {
          "internalType": "uint8",
          "name": "",
          "type": "uint8"
        }
      ],
      "stateMutability": "view",
      "type": "function"
    },
    {
      "inputs": [],
      "name": "CLOSED_SLOTS",
      "outputs": [
        {
          "internalType": "uint8",
          "name": "",
          "type": "uint8"
        }
      ],
      "stateMutability": "view",
      "type": "function"
    },
    {
      "inputs": [],
      "name": "OPEN_SLOTS",
      "outputs": [
        {
          "internalType": "uint128",
          "name": "",
          "type": "uint128"
        }
      ],
      "stateMutability": "view",
      "type": "function"
    },
    {
      "inputs": [
        {
          "internalType": "uint16",
          "name": "slotNumber",
          "type": "uint16"
        },
        {
          "internalType": "uint128",
          "name": "bidAmount",
          "type": "uint128"
        }
      ],
      "name": "bid",
      "outputs": [],
      "stateMutability": "payable",
      "type": "function"
    },
    {
      "inputs": [],
      "name": "defaultProcessorUrl",
      "outputs": [
        {
          "internalType": "string",
          "name": "",
          "type": "string"
        }
      ],
      "stateMutability": "view",
      "type": "function"
    },
    {
      "inputs": [],
      "name": "getClosedSlots",
      "outputs": [
        {
          "internalType": "uint128",
          "name": "",
          "type": "uint128"
        }
      ],
      "stateMutability": "pure",
      "type": "function"
    },
    {
      "inputs": [],
      "name": "getCurrentSlotNumber",
      "outputs": [
        {
          "internalType": "uint128",
          "name": "",
          "type": "uint128"
        }
      ],
      "stateMutability": "view",
      "type": "function"
    },
    {
      "inputs": [],
      "name": "getCurrentValidator",
      "outputs": [
        {
          "internalType": "string",
          "name": "",
          "type": "string"
        },
        {
          "internalType": "address",
          "name": "",
          "type": "address"
        }
      ],
      "stateMutability": "view",
      "type": "function"
    },
    {
      "inputs": [],
      "name": "getDefaultProcessor",
      "outputs": [
        {
          "internalType": "address",
          "name": "",
          "type": "address"
        }
      ],
      "stateMutability": "view",
      "type": "function"
    },
    {
      "inputs": [],
      "name": "getDefaultProcessorUrl",
      "outputs": [
        {
          "internalType": "string",
          "name": "",
          "type": "string"
        }
      ],
      "stateMutability": "view",
      "type": "function"
    },
    {
      "inputs": [],
      "name": "getInitialBlockNumber",
      "outputs": [
        {
          "internalType": "uint128",
          "name": "",
          "type": "uint128"
        }
      ],
      "stateMutability": "view",
      "type": "function"
    },
    {
      "inputs": [
        {
          "internalType": "uint16",
          "name": "slotNumber",
          "type": "uint16"
        }
      ],
      "name": "getMinBid",
      "outputs": [
        {
          "internalType": "uint128",
          "name": "",
          "type": "uint128"
        }
      ],
      "stateMutability": "view",
      "type": "function"
    },
    {
      "inputs": [],
      "name": "getSlotDeadline",
      "outputs": [
        {
          "internalType": "uint16",
          "name": "",
          "type": "uint16"
        }
      ],
      "stateMutability": "view",
      "type": "function"
    },
    {
      "inputs": [
        {
          "internalType": "uint128",
          "name": "blockNumber",
          "type": "uint128"
        }
      ],
      "name": "getSlotNumber",
      "outputs": [
        {
          "internalType": "uint128",
          "name": "",
          "type": "uint128"
        }
      ],
      "stateMutability": "view",
      "type": "function"
    },
    {
      "inputs": [],
      "name": "getTreasury",
      "outputs": [
        {
          "internalType": "address",
          "name": "",
          "type": "address"
        }
      ],
      "stateMutability": "view",
      "type": "function"
    },
    {
      "inputs": [],
      "name": "initialBlockNumber",
      "outputs": [
        {
          "internalType": "uint128",
          "name": "",
          "type": "uint128"
        }
      ],
      "stateMutability": "view",
      "type": "function"
    },
    {
      "inputs": [
        {
          "internalType": "address",
          "name": "node",
          "type": "address"
        }
      ],
      "name": "isNodeRegistered",
      "outputs": [
        {
          "internalType": "bool",
          "name": "",
          "type": "bool"
        }
      ],
      "stateMutability": "view",
      "type": "function"
    },
    {
      "inputs": [
        {
          "internalType": "address",
          "name": "",
          "type": "address"
        }
      ],
      "name": "nodes",
      "outputs": [
        {
          "internalType": "address",
          "name": "validator",
          "type": "address"
        },
        {
          "internalType": "string",
          "name": "nodeUrl",
          "type": "string"
        }
      ],
      "stateMutability": "view",
      "type": "function"
    },
    {
      "inputs": [
        {
          "internalType": "address",
          "name": "",
          "type": "address"
        }
      ],
      "name": "pendingBalances",
      "outputs": [
        {
          "internalType": "uint128",
          "name": "",
          "type": "uint128"
        }
      ],
      "stateMutability": "view",
      "type": "function"
    },
    {
      "inputs": [
        {
          "internalType": "uint16",
          "name": "slotNumber",
          "type": "uint16"
        },
        {
          "internalType": "uint128",
          "name": "refundAmount",
          "type": "uint128"
        }
      ],
      "name": "refund",
      "outputs": [],
      "stateMutability": "payable",
      "type": "function"
    },
    {
      "inputs": [
        {
          "internalType": "address",
          "name": "validator",
          "type": "address"
        },
        {
          "internalType": "string",
          "name": "nodeUrl",
          "type": "string"
        }
      ],
      "name": "registerValidator",
      "outputs": [],
      "stateMutability": "payable",
      "type": "function"
    },
    {
      "inputs": [
        {
          "internalType": "address",
          "name": "newTreasury",
          "type": "address"
        }
      ],
      "name": "setDefaultProcessor",
      "outputs": [],
      "stateMutability": "nonpayable",
      "type": "function"
    },
    {
      "inputs": [
        {
          "internalType": "string",
          "name": "processorUrl",
          "type": "string"
        }
      ],
      "name": "setDefaultProcessorUrl",
      "outputs": [],
      "stateMutability": "nonpayable",
      "type": "function"
    },
    {
      "inputs": [
        {
          "internalType": "uint128",
          "name": "genesis",
          "type": "uint128"
        }
      ],
      "name": "setInitialBlockNumber",
      "outputs": [],
      "stateMutability": "nonpayable",
      "type": "function"
    },
    {
      "inputs": [
        {
          "internalType": "uint16",
          "name": "newDeadline",
          "type": "uint16"
        }
      ],
      "name": "setSlotDeadline",
      "outputs": [],
      "stateMutability": "nonpayable",
      "type": "function"
    },
    {
      "inputs": [
        {
          "internalType": "address",
          "name": "newTreasury",
          "type": "address"
        }
      ],
      "name": "setTreasury",
      "outputs": [],
      "stateMutability": "nonpayable",
      "type": "function"
    },
    {
      "inputs": [
        {
          "internalType": "uint128",
          "name": "",
          "type": "uint128"
        }
      ],
      "name": "slots",
      "outputs": [
        {
          "internalType": "address",
          "name": "bidder",
          "type": "address"
        },
        {
          "internalType": "string",
          "name": "bidderUrl",
          "type": "string"
        },
        {
          "internalType": "uint128",
          "name": "bidAmount",
          "type": "uint128"
        },
        {
          "internalType": "uint128",
          "name": "minBid",
          "type": "uint128"
        }
      ],
      "stateMutability": "view",
      "type": "function"
    }
  ],
  "bytecode": "0x60806040523480156200001157600080fd5b50604051620020fb380380620020fb8339810160408190526200003491620002d8565b6001600160a01b038416620000905760405162461bcd60e51b815260206004820152601c60248201527f547265617375727920616464726573732063616e6e6f7420626520300000000060448201526064015b60405180910390fd5b600080546001600160a01b038087166001600160a01b03199283161790925560018054928616929091169190911790558151620000d5906002906020850190620001e7565b5043816001600160801b03161015620001575760405162461bcd60e51b815260206004820152603c60248201527f47656e6573697320626c6f636b206d757374206265206772656174657220746860448201527f616e206f7220657175616c20746f2063757272656e7420626c6f636b00000000606482015260840162000087565b6001600160801b03818116607d60831b8117600381905560048054600a61ffff1990911681179091556000546001546040517f4a78032ac881ce4870fce7053958b28236002108d5430955c8e030eb9aedec0a96620001d5966001600160a01b03948516969490931694600294600160801b9004909116916200042c565b60405180910390a1505050506200052c565b828054620001f590620003ef565b90600052602060002090601f01602090048101928262000219576000855562000264565b82601f106200023457805160ff191683800117855562000264565b8280016001018555821562000264579182015b828111156200026457825182559160200191906001019062000247565b506200027292915062000276565b5090565b5b8082111562000272576000815560010162000277565b80516001600160a01b0381168114620002a557600080fd5b919050565b634e487b7160e01b600052604160045260246000fd5b80516001600160801b0381168114620002a557600080fd5b60008060008060808587031215620002ef57600080fd5b620002fa856200028d565b935060206200030b8187016200028d565b60408701519094506001600160401b03808211156200032957600080fd5b818801915088601f8301126200033e57600080fd5b815181811115620003535762000353620002aa565b604051601f8201601f19908116603f011681019083821181831017156200037e576200037e620002aa565b816040528281528b868487010111156200039757600080fd5b600093505b82841015620003bb57848401860151818501870152928501926200039c565b82841115620003cd5760008684830101525b809750505050505050620003e460608601620002c0565b905092959194509250565b600181811c908216806200040457607f821691505b602082108114156200042657634e487b7160e01b600052602260045260246000fd5b50919050565b6001600160a01b038781168252861660208083019190915260c0604083015285546000918291600181811c90828116806200046857607f831692505b8483108114156200048757634e487b7160e01b86526022600452602486fd5b60c0880183905260e08801818015620004a95760018114620004bb57620004e8565b60ff19861682528682019750620004e8565b60008e81526020902060005b86811015620004e257815484820152908501908801620004c7565b83019850505b5050506001600160801b038a166060880152509293506200050892505050565b6001600160801b038416608083015261ffff831660a0830152979650505050505050565b611bbf806200053c6000396000f3fe60806040526004361061019c5760003560e01c8063a845d6ad116100ec578063cf6ae6761161008a578063e990a11711610064578063e990a117146104b9578063ecdae41b146104d9578063eea0ec3f1461050f578063f0f442601461052257600080fd5b8063cf6ae67614610470578063cf86f54b14610490578063e8c3e347146104a457600080fd5b8063b3ae65d7116100c6578063b3ae65d7146103e2578063b3dc7bb114610402578063bc41556714610422578063c93a08a31461045257600080fd5b8063a845d6ad14610397578063a9dfd6b6146103ad578063ae4718a0146103cf57600080fd5b806335d21ea81161015957806375c0f6b21161013357806375c0f6b2146103045780637fc1b32e146103175780638cc0ebb514610337578063a40958d31461038257600080fd5b806335d21ea8146102925780633b19e84a146102b457806375237c04146102e657600080fd5b806302ab39b4146101a15780630c4da4f6146101cd57806313de9af2146101fa578063189a5a171461021d5780632243de471461024b578063300261ea14610272575b600080fd5b3480156101ad57600080fd5b506101b6610542565b6040516101c49291906116e0565b60405180910390f35b3480156101d957600080fd5b506101e26106c7565b6040516001600160801b0390911681526020016101c4565b34801561020657600080fd5b5060045460405161ffff90911681526020016101c4565b34801561022957600080fd5b5061023d610238366004611726565b6106d7565b6040516101c4929190611741565b34801561025757600080fd5b50610260601481565b60405160ff90911681526020016101c4565b34801561027e57600080fd5b506101e261028d36600461177f565b610786565b34801561029e57600080fd5b506102b26102ad36600461183d565b6107fa565b005b3480156102c057600080fd5b506000546001600160a01b03165b6040516001600160a01b0390911681526020016101c4565b3480156102f257600080fd5b506003546001600160801b03166101e2565b6102b2610312366004611872565b610828565b34801561032357600080fd5b506102b2610332366004611726565b6109a8565b34801561034357600080fd5b50610372610352366004611726565b6001600160a01b0390811660009081526007602052604090205416151590565b60405190151581526020016101c4565b34801561038e57600080fd5b50610260600281565b3480156103a357600080fd5b506101e2619c4081565b3480156103b957600080fd5b506103c26109e1565b6040516101c491906118c0565b6102b26103dd3660046118ea565b610a73565b3480156103ee57600080fd5b506003546101e2906001600160801b031681565b34801561040e57600080fd5b506101e261041d36600461191d565b610caf565b34801561042e57600080fd5b5061044261043d36600461191d565b610cf9565b6040516101c49493929190611938565b34801561045e57600080fd5b506001546001600160a01b03166102ce565b34801561047c57600080fd5b506102b261048b36600461177f565b610dc2565b34801561049c57600080fd5b5060026101e2565b3480156104b057600080fd5b506103c2610e90565b3480156104c557600080fd5b506102b26104d436600461191d565b610f1e565b3480156104e557600080fd5b506101e26104f4366004611726565b6006602052600090815260409020546001600160801b031681565b6102b261051d3660046118ea565b610fd6565b34801561052e57600080fd5b506102b261053d366004611726565b6110f0565b6060600080806005816105536106c7565b6001600160801b031681526020810191909152604001600020546001600160a01b03161415610589576105846109e1565b610642565b600560006105956106c7565b6001600160801b03166001600160801b0316815260200190815260200160002060010180546105c39061197d565b80601f01602080910402602001604051908101604052809291908181526020018280546105ef9061197d565b801561063c5780601f106106115761010080835404028352916020019161063c565b820191906000526020600020905b81548152906001019060200180831161061f57829003601f168201915b50505050505b90506000806005816106526106c7565b6001600160801b031681526020810191909152604001600020546001600160a01b0316141561068c576001546001600160a01b03166106bc565b600560006106986106c7565b6001600160801b031681526020810191909152604001600020546001600160a01b03165b919491935090915050565b60006106d243610caf565b905090565b600760205260009081526040902080546001820180546001600160a01b0390921692916107039061197d565b80601f016020809104026020016040519081016040528092919081815260200182805461072f9061197d565b801561077c5780601f106107515761010080835404028352916020019161077c565b820191906000526020600020905b81548152906001019060200180831161075f57829003601f168201915b5050505050905082565b600060026107926106c7565b61079c91906119ce565b6001600160801b03168261ffff16116107d05760405162461bcd60e51b81526004016107c7906119f9565b60405180910390fd5b5061ffff16600090815260056020526040902060020154600160801b90046001600160801b031690565b6000546001600160a01b0316331461081157600080fd5b8051610824906002906020840190611570565b5050565b604080516000815260208101808352815190209161084891849101611a4d565b6040516020818303038152906040528051906020012014156108ac5760405162461bcd60e51b815260206004820152601860248201527f4e6f64652075726c2063616e6e6f7420626520656d707479000000000000000060448201526064016107c7565b6001600160a01b0382166109025760405162461bcd60e51b815260206004820152601d60248201527f56616c696461746f7220616464726573732063616e6e6f74206265203000000060448201526064016107c7565b33600090815260066020908152604080832080546001600160801b031916346001600160801b03161790556007825290912080546001600160a01b0319166001600160a01b03851617815582516109629260019290920191840190611570565b50336001600160a01b03167f77355ba99bad07729d891699edc0bc9b092c689e53e99ec0a75f10eb7764c4ff8260405161099c91906118c0565b60405180910390a25050565b6000546001600160a01b031633146109bf57600080fd5b600180546001600160a01b0319166001600160a01b0392909216919091179055565b6060600280546109f09061197d565b80601f0160208091040260200160405190810160405280929190818152602001828054610a1c9061197d565b8015610a695780601f10610a3e57610100808354040283529160200191610a69565b820191906000526020600020905b815481529060010190602001808311610a4c57829003601f168201915b5050505050905090565b336000908152600760205260409020546001600160a01b0316610ad85760405162461bcd60e51b815260206004820181905260248201527f56616c696461746f72206e6565647320746f206265207265676973746572656460448201526064016107c7565b6002610ae26106c7565b610aec91906119ce565b6001600160801b03168261ffff1611610b175760405162461bcd60e51b81526004016107c7906119f9565b610b2082610786565b6001600160801b03163411610b815760405162461bcd60e51b815260206004820152602160248201527f42696420616d6f756e74206d7573742062652067726561746572207468616e206044820152600360fc1b60648201526084016107c7565b619c406002610b8e6106c7565b610b9891906119ce565b610ba291906119ce565b6001600160801b03168261ffff161115610bf45760405162461bcd60e51b815260206004820152601360248201527220bab1ba34b7b71034b9903737ba1037b832b760691b60448201526064016107c7565b33600090815260066020526040902054610c17906001600160801b031634611129565b33600090815260066020526040902080546001600160801b0319166001600160801b039283169081179091559082161115610ca45760405162461bcd60e51b815260206004820152602760248201527f42616c616e6365206d7573742062652067726561746572207468616e2062696460448201526608185b5bdd5b9d60ca1b60648201526084016107c7565b6108248282336111a1565b6003546000906001600160801b039081169083161015610cd0576000610cf3565b600354601490610ce9906001600160801b031684611a69565b610cf39190611a91565b92915050565b600560205260009081526040902080546001820180546001600160a01b039092169291610d259061197d565b80601f0160208091040260200160405190810160405280929190818152602001828054610d519061197d565b8015610d9e5780601f10610d7357610100808354040283529160200191610d9e565b820191906000526020600020905b815481529060010190602001808311610d8157829003601f168201915b505050600290930154919250506001600160801b0380821691600160801b90041684565b6000546001600160a01b03163314610dd957600080fd5b601461ffff82161115610e465760405162461bcd60e51b815260206004820152602f60248201527f536c6f7420646561646c696e65206d757374206265206c657373207468616e2060448201526e189b1bd8dadcc81c195c881cdb1bdd608a1b60648201526084016107c7565b6004805461ffff191661ffff83169081179091556040519081527f620c46cffb8a4d49e4ae75623f13008735f697ac95972e1503a178c35026b7d59060200160405180910390a150565b60028054610e9d9061197d565b80601f0160208091040260200160405190810160405280929190818152602001828054610ec99061197d565b8015610f165780601f10610eeb57610100808354040283529160200191610f16565b820191906000526020600020905b815481529060010190602001808311610ef957829003601f168201915b505050505081565b6000546001600160a01b03163314610f3557600080fd5b43816001600160801b03161015610fb45760405162461bcd60e51b815260206004820152603c60248201527f47656e6573697320626c6f636b206d757374206265206772656174657220746860448201527f616e206f7220657175616c20746f2063757272656e7420626c6f636b0000000060648201526084016107c7565b600380546001600160801b0319166001600160801b0392909216919091179055565b61ffff82166000908152600560205260409020546001600160a01b03163314156110545760405162461bcd60e51b815260206004820152602960248201527f426964646572206d757374206e6f74206265207468652077696e6e6572206f66604482015268081d1a19481cdb1bdd60ba1b60648201526084016107c7565b336000908152600660205260409020546001600160801b03808316911610156110e55760405162461bcd60e51b815260206004820152603b60248201527f526566756e6420616d6f756e74206d757374206265206c657373207468616e2060448201527f6f7220657175616c20746f2070656e64696e672062616c616e6365000000000060648201526084016107c7565b610824828233611445565b6000546001600160a01b0316331461110757600080fd5b600080546001600160a01b0319166001600160a01b0392909216919091179055565b60008061113683856119ce565b9050836001600160801b0316816001600160801b0316101561119a5760405162461bcd60e51b815260206004820152601b60248201527f536166654d6174683a206164646974696f6e206f766572666c6f77000000000060448201526064016107c7565b9392505050565b61ffff8316600090815260056020526040902080546002909101546001600160a01b03909116906001600160801b0390811690841681106112405760405162461bcd60e51b815260206004820152603360248201527f42696420616d6f756e74206d7573742062652067726561746572207468616e206044820152721c1c995d9a5bdd5cc8189a5908185b5bdd5b9d606a1b60648201526084016107c7565b6001600160a01b03831660009081526006602052604090205461126c906001600160801b0316856114e6565b6001600160a01b038416600081815260066020908152604080832080546001600160801b03199081166001600160801b039788161790915561ffff8b16808552600580855283862080546001600160a01b03191688178155600281018054909416988d16989098179092559484526007835290832093909252526001908101805492909101916112fb9061197d565b6113069291906115f4565b506001600160a01b0382161580159061132757506001600160801b03811615155b1561138f576001600160a01b038216600090815260066020526040902054611358906001600160801b031682611129565b6001600160a01b038316600090815260066020526040902080546001600160801b0319166001600160801b03929092169190911790555b6040516001600160801b03851681526001600160a01b0384169061ffff8716907fd48e8329cdb2fb109b4fe445d7b681a74b256bff16e6f7f33b9d4fbe9038e4339060200160405180910390a37fc914ec91df50f148c6eeac43f49e7b91bdbbbefcd29de356c82d809c37211597858460076000876001600160a01b03166001600160a01b0316815260200190815260200160002060010160405161143693929190611ac5565b60405180910390a15050505050565b6001600160a01b038116600090815260066020526040902054611471906001600160801b0316836114e6565b6001600160a01b03821660008181526006602090815260409182902080546001600160801b0319166001600160801b0395861617905590519285168352909161ffff8616917f58071e3229f09824fbeb8054a5ddd5b4389587fd84131341e894fec3211e31c2910160405180910390a3505050565b600061119a83836040518060400160405280601e81526020017f536166654d6174683a207375627472616374696f6e206f766572666c6f7700008152506000836001600160801b0316836001600160801b03161115829061155a5760405162461bcd60e51b81526004016107c791906118c0565b5060006115678486611a69565b95945050505050565b82805461157c9061197d565b90600052602060002090601f01602090048101928261159e57600085556115e4565b82601f106115b757805160ff19168380011785556115e4565b828001600101855582156115e4579182015b828111156115e45782518255916020019190600101906115c9565b506115f092915061166f565b5090565b8280546116009061197d565b90600052602060002090601f01602090048101928261162257600085556115e4565b82601f1061163357805485556115e4565b828001600101855582156115e457600052602060002091601f016020900482015b828111156115e4578254825591600101919060010190611654565b5b808211156115f05760008155600101611670565b60005b8381101561169f578181015183820152602001611687565b838111156116ae576000848401525b50505050565b600081518084526116cc816020860160208601611684565b601f01601f19169290920160200192915050565b6040815260006116f360408301856116b4565b905060018060a01b03831660208301529392505050565b80356001600160a01b038116811461172157600080fd5b919050565b60006020828403121561173857600080fd5b61119a8261170a565b6001600160a01b0383168152604060208201819052600090611765908301846116b4565b949350505050565b803561ffff8116811461172157600080fd5b60006020828403121561179157600080fd5b61119a8261176d565b634e487b7160e01b600052604160045260246000fd5b600082601f8301126117c157600080fd5b813567ffffffffffffffff808211156117dc576117dc61179a565b604051601f8301601f19908116603f011681019082821181831017156118045761180461179a565b8160405283815286602085880101111561181d57600080fd5b836020870160208301376000602085830101528094505050505092915050565b60006020828403121561184f57600080fd5b813567ffffffffffffffff81111561186657600080fd5b611765848285016117b0565b6000806040838503121561188557600080fd5b61188e8361170a565b9150602083013567ffffffffffffffff8111156118aa57600080fd5b6118b6858286016117b0565b9150509250929050565b60208152600061119a60208301846116b4565b80356001600160801b038116811461172157600080fd5b600080604083850312156118fd57600080fd5b6119068361176d565b9150611914602084016118d3565b90509250929050565b60006020828403121561192f57600080fd5b61119a826118d3565b6001600160a01b038516815260806020820181905260009061195c908301866116b4565b6001600160801b039485166040840152929093166060909101529392505050565b600181811c9082168061199157607f821691505b602082108114156119b257634e487b7160e01b600052602260045260246000fd5b50919050565b634e487b7160e01b600052601160045260246000fd5b60006001600160801b038083168185168083038211156119f0576119f06119b8565b01949350505050565b60208082526034908201527f536c6f74206e756d626572206d7573742062652067726561746572207468616e6040820152731031bab93932b73a1039b637ba10373ab6b132b960611b606082015260800190565b60008251611a5f818460208701611684565b9190910192915050565b60006001600160801b0383811690831681811015611a8957611a896119b8565b039392505050565b60006001600160801b0380841680611ab957634e487b7160e01b600052601260045260246000fd5b92169190910492915050565b61ffff841681526000602060018060a01b03851681840152606060408401526000845481600182811c915080831680611aff57607f831692505b858310811415611b1d57634e487b7160e01b85526022600452602485fd5b6060880183905260808801818015611b3c5760018114611b4d57611b78565b60ff19861682528782019650611b78565b60008b81526020902060005b86811015611b7257815484820152908501908901611b59565b83019750505b50949b9a505050505050505050505056fea264697066735822122035a5344c702636adfb4675ecdc23593b46defd63095931666ec42b5f39c1c57164736f6c63430008090033",
  "linkReferences": {},
  "deployedLinkReferences": {}
}