{
  "_format": "hh-sol-artifact-1",
  "contractName": "Marketplace",
  "sourceName": "contracts/marketplace/Marketplace.sol",
  "abi": [
    {
      "inputs": [
        {
          "internalType": "uint8[3]",
          "name": "_allocationRatio",
          "type": "uint8[3]"
        },
        {
          "internalType": "address",
          "name": "_treasury",
          "type": "address"
        }
      ],
      "stateMutability": "nonpayable",
      "type": "constructor"
    },
    {
      "anonymous": false,
      "inputs": [
        {
          "indexed": true,
          "internalType": "address",
          "name": "signer",
          "type": "address"
        },
        {
          "indexed": true,
          "internalType": "address",
          "name": "taker",
          "type": "address"
        },
        {
          "indexed": true,
          "internalType": "address",
          "name": "contractAddress",
          "type": "address"
        },
        {
          "indexed": false,
          "internalType": "uint128",
          "name": "nftId",
          "type": "uint128"
        },
        {
          "indexed": false,
          "internalType": "address",
          "name": "gossiper",
          "type": "address"
        },
        {
          "indexed": false,
          "internalType": "uint128",
          "name": "price",
          "type": "uint128"
        }
      ],
      "name": "Match",
      "type": "event"
    },
    {
      "inputs": [
        {
          "internalType": "uint256",
          "name": "",
          "type": "uint256"
        }
      ],
      "name": "allocationRatio",
      "outputs": [
        {
          "internalType": "uint8",
          "name": "",
          "type": "uint8"
        }
      ],
      "stateMutability": "view",
      "type": "function"
    },
    {
      "inputs": [
        {
          "internalType": "bytes32",
          "name": "",
          "type": "bytes32"
        }
      ],
      "name": "cancelledOrMatched",
      "outputs": [
        {
          "internalType": "bool",
          "name": "",
          "type": "bool"
        }
      ],
      "stateMutability": "view",
      "type": "function"
    },
    {
      "inputs": [],
      "name": "getAllocationRatio",
      "outputs": [
        {
          "internalType": "uint8[3]",
          "name": "",
          "type": "uint8[3]"
        }
      ],
      "stateMutability": "view",
      "type": "function"
    },
    {
      "inputs": [
        {
          "components": [
            {
              "internalType": "address",
              "name": "signer",
              "type": "address"
            },
            {
              "internalType": "address",
              "name": "taker",
              "type": "address"
            },
            {
              "internalType": "address",
              "name": "contractAddress",
              "type": "address"
            },
            {
              "internalType": "address",
              "name": "tokenAddress",
              "type": "address"
            },
            {
              "internalType": "uint128",
              "name": "nftId",
              "type": "uint128"
            },
            {
              "internalType": "address",
              "name": "gossiper",
              "type": "address"
            },
            {
              "internalType": "uint128",
              "name": "price",
              "type": "uint128"
            },
            {
              "internalType": "enum Marketplace.OrderType",
              "name": "order_type",
              "type": "uint8"
            }
          ],
          "internalType": "struct Marketplace.Order",
          "name": "buy",
          "type": "tuple"
        },
        {
          "components": [
            {
              "internalType": "uint8",
              "name": "v",
              "type": "uint8"
            },
            {
              "internalType": "bytes32",
              "name": "r",
              "type": "bytes32"
            },
            {
              "internalType": "bytes32",
              "name": "s",
              "type": "bytes32"
            }
          ],
          "internalType": "struct Marketplace.MarketplaceSignature",
          "name": "buySignature",
          "type": "tuple"
        },
        {
          "components": [
            {
              "internalType": "address",
              "name": "signer",
              "type": "address"
            },
            {
              "internalType": "address",
              "name": "taker",
              "type": "address"
            },
            {
              "internalType": "address",
              "name": "contractAddress",
              "type": "address"
            },
            {
              "internalType": "address",
              "name": "tokenAddress",
              "type": "address"
            },
            {
              "internalType": "uint128",
              "name": "nftId",
              "type": "uint128"
            },
            {
              "internalType": "address",
              "name": "gossiper",
              "type": "address"
            },
            {
              "internalType": "uint128",
              "name": "price",
              "type": "uint128"
            },
            {
              "internalType": "enum Marketplace.OrderType",
              "name": "order_type",
              "type": "uint8"
            }
          ],
          "internalType": "struct Marketplace.Order",
          "name": "sell",
          "type": "tuple"
        },
        {
          "components": [
            {
              "internalType": "uint8",
              "name": "v",
              "type": "uint8"
            },
            {
              "internalType": "bytes32",
              "name": "r",
              "type": "bytes32"
            },
            {
              "internalType": "bytes32",
              "name": "s",
              "type": "bytes32"
            }
          ],
          "internalType": "struct Marketplace.MarketplaceSignature",
          "name": "sellSignature",
          "type": "tuple"
        },
        {
          "internalType": "address payable",
          "name": "matcher",
          "type": "address"
        }
      ],
      "name": "matchOrder",
      "outputs": [
        {
          "internalType": "bool",
          "name": "",
          "type": "bool"
        }
      ],
      "stateMutability": "payable",
      "type": "function"
    },
    {
      "inputs": [
        {
          "internalType": "uint128",
          "name": "amount",
          "type": "uint128"
        },
        {
          "internalType": "address payable",
          "name": "gossiper",
          "type": "address"
        },
        {
          "internalType": "address payable",
          "name": "matcher",
          "type": "address"
        }
      ],
      "name": "processCommissions",
      "outputs": [
        {
          "internalType": "bool",
          "name": "",
          "type": "bool"
        }
      ],
      "stateMutability": "payable",
      "type": "function"
    },
    {
      "inputs": [
        {
          "internalType": "uint8[3]",
          "name": "_allocationRatio",
          "type": "uint8[3]"
        }
      ],
      "name": "setAllocationRatio",
      "outputs": [],
      "stateMutability": "nonpayable",
      "type": "function"
    },
    {
      "inputs": [],
      "name": "treasury",
      "outputs": [
        {
          "internalType": "address",
          "name": "",
          "type": "address"
        }
      ],
      "stateMutability": "view",
      "type": "function"
    }
  ],
  "bytecode": "0x60806040523480156200001157600080fd5b50604051620013d8380380620013d88339810160408190526200003491620001ea565b604082015160208301518351606492916200004f9162000289565b6200005b919062000289565b60ff161115620000bd5760405162461bcd60e51b815260206004820152602360248201527f416c6c6f636174696f6e20726174696f206d7573742073756d20757020746f2060448201526203130360ec1b606482015260840160405180910390fd5b620000cc6000836003620000f4565b50600180546001600160a01b0319166001600160a01b039290921691909117905550620002bd565b6001830191839082156200017c5791602002820160005b838211156200014b57835183826101000a81548160ff021916908360ff16021790555092602001926001016020816000010492830192600103026200010b565b80156200017a5782816101000a81549060ff02191690556001016020816000010492830192600103026200014b565b505b506200018a9291506200018e565b5090565b5b808211156200018a57600081556001016200018f565b634e487b7160e01b600052604160045260246000fd5b805160ff81168114620001cd57600080fd5b919050565b80516001600160a01b0381168114620001cd57600080fd5b60008060808385031215620001fe57600080fd5b83601f8401126200020e57600080fd5b604051606081016001600160401b0381118282101715620002335762000233620001a5565b6040528060608501868111156200024957600080fd5b855b818110156200026e576200025f81620001bb565b8352602092830192016200024b565b508294506200027d81620001d2565b93505050509250929050565b600060ff821660ff84168060ff03821115620002b557634e487b7160e01b600052601160045260246000fd5b019392505050565b61110b80620002cd6000396000f3fe6080604052600436106100705760003560e01c8063baf2b3941161004e578063baf2b39414610105578063e3498da714610137578063ec29159b14610159578063f4cccdd51461017b57600080fd5b806352c9c9641461007557806355ebbe511461009d57806361d027b3146100cd575b600080fd5b610088610083366004610df8565b61018e565b60405190151581526020015b60405180910390f35b3480156100a957600080fd5b506100886100b8366004610e6a565b60026020526000908152604090205460ff1681565b3480156100d957600080fd5b506001546100ed906001600160a01b031681565b6040516001600160a01b039091168152602001610094565b34801561011157600080fd5b50610125610120366004610e6a565b6104ef565b60405160ff9091168152602001610094565b34801561014357600080fd5b50610157610152366004610e83565b610519565b005b34801561016557600080fd5b5061016e6105b3565b6040516100949190610f08565b610088610189366004610f3c565b61060a565b845160009081906001600160a01b031633146101b1576101ae87876108ce565b90505b84516000906001600160a01b031633146101d2576101cf86866108ce565b90505b6101dc8887610923565b6102235760405162461bcd60e51b815260206004820152601360248201527209ee4c8cae4e640c8de40dcdee840dac2e8c6d606b1b60448201526064015b60405180910390fd5b87516001600160a01b0316331461024e576000828152600260205260409020805460ff191660011790555b85516001600160a01b03163314610279576000818152600260205260409020805460ff191660011790555b604088810151875160208b015160808c01519351632142170760e11b81526001600160a01b03928316600482015290821660248201526001600160801b0390931660448401529091908216906342842e0e90606401600060405180830381600087803b1580156102e857600080fd5b505af11580156102fc573d6000803e3d6000fd5b50505050606089015160208a0151885160c08c01516040516323b872dd60e01b81526001600160a01b03938416600482015291831660248301526001600160801b03166044820152908216906323b872dd90606401602060405180830381600087803b15801561036b57600080fd5b505af115801561037f573d6000803e3d6000fd5b505050506040513d601f19601f820116820180604052508101906103a39190610f85565b6103ef5760405162461bcd60e51b815260206004820181905260248201527f436f756c64206e6f74207472616e73666572207061796d656e7420746f6b656e604482015260640161021a565b6103fe348b60a001518861060a565b61044a5760405162461bcd60e51b815260206004820152601d60248201527f436f756c64206e6f742070726f6365737320636f6d6d697373696f6e73000000604482015260640161021a565b89604001516001600160a01b03168a602001516001600160a01b031689600001516001600160a01b03167f90c136bb5920210ee5e8cc11e5b55a88fd5cceb47c254406c978a867904c1f998d608001518e60a001518f60c001516040516104da939291906001600160801b0393841681526001600160a01b03929092166020830152909116604082015260600190565b60405180910390a45050505095945050505050565b600081600381106104ff57600080fd5b60209182820401919006915054906101000a900460ff1681565b6040810151602082015182516064929161053291610fbd565b61053c9190610fbd565b60ff1611156105a25760405162461bcd60e51b815260206004820152602c60248201527f5468652073756d206f662074686520616c6c6f636174696f6e20726174696f7360448201526b0206d757374206265203130360a41b606482015260840161021a565b6105af6000826003610b8f565b5050565b6105bb610c22565b604080516060810191829052906000906003908280855b825461010083900a900460ff168152602060019283018181049485019490930390920291018084116105d25790505050505050905090565b6000805481906064906106209060ff1687610fe2565b61062a9190611011565b600080549192509060649061064790610100900460ff1688610fe2565b6106519190611011565b600080549192509060649061066f9062010000900460ff1689610fe2565b6106799190611011565b9050600080876001600160a01b0316856001600160801b031660405160006040518083038185875af1925050503d80600081146106d2576040519150601f19603f3d011682016040523d82523d6000602084013e6106d7565b606091505b5091509150816107345760405162461bcd60e51b815260206004820152602260248201527f436f756c64206e6f742073656e6420676f73736970657220636f6d6d6973736960448201526137b760f11b606482015260840161021a565b600080886001600160a01b0316856001600160801b031660405160006040518083038185875af1925050503d806000811461078b576040519150601f19603f3d011682016040523d82523d6000602084013e610790565b606091505b5091509150816107ec5760405162461bcd60e51b815260206004820152602160248201527f436f756c64206e6f742073656e64206d61746368657220636f6d6d697373696f6044820152603760f91b606482015260840161021a565b60015460405160009182916001600160a01b03909116906001600160801b038a16908381818185875af1925050503d8060008114610846576040519150601f19603f3d011682016040523d82523d6000602084013e61084b565b606091505b5091509150816108a85760405162461bcd60e51b815260206004820152602260248201527f436f756c64206e6f742073656e6420747265617375727920636f6d6d6973736960448201526137b760f11b606482015260840161021a565b8580156108b25750835b80156108bb5750815b99505050505050505050505b9392505050565b6000806108da84610a85565b90506108e7818585610adc565b6108c75760405162461bcd60e51b815260206004820152600d60248201526c24b73b30b634b21037b93232b960991b604482015260640161021a565b600081604001516001600160a01b031683604001516001600160a01b0316148015610967575081608001516001600160801b031683608001516001600160801b0316145b801561098c575081606001516001600160a01b031683606001516001600160a01b0316145b80156109b157508160a001516001600160a01b03168360a001516001600160a01b0316145b80156109d657508160c001516001600160801b03168360c001516001600160801b0316145b8015610a16575060008360e0015160018111156109f5576109f5611045565b1480610a16575060018260e001516001811115610a1457610a14611045565b145b8015610a50575060208201516001600160a01b03161580610a50575082600001516001600160a01b031682602001516001600160a01b0316145b80156108c7575060208301516001600160a01b031615806108c7575050516020909101516001600160a01b0390811691161490565b80516020808301516040808501516060860151608087015160a088015160c089015160e08a01519551600099610abf99909897910161105b565b604051602081830303815290604052805190602001209050919050565b60008381526002602052604081205460ff1615610afb575060006108c7565b825182516020808501516040808701518151600081529384018083528a905260ff90941690830152606082015260808101919091526001600160a01b039091169060019060a0016020604051602081039080840390855afa158015610b64573d6000803e3d6000fd5b505050602060405103516001600160a01b03161415610b85575060016108c7565b5060009392505050565b600183019183908215610c125791602002820160005b83821115610be357835183826101000a81548160ff021916908360ff1602179055509260200192600101602081600001049283019260010302610ba5565b8015610c105782816101000a81549060ff0219169055600101602081600001049283019260010302610be3565b505b50610c1e929150610c40565b5090565b60405180606001604052806003906020820280368337509192915050565b5b80821115610c1e5760008155600101610c41565b634e487b7160e01b600052604160045260246000fd5b6001600160a01b0381168114610c8057600080fd5b50565b8035610c8e81610c6b565b919050565b80356001600160801b0381168114610c8e57600080fd5b803560028110610c8e57600080fd5b6000610100808385031215610ccd57600080fd5b6040519081019067ffffffffffffffff82118183101715610cf057610cf0610c55565b8160405280925083359150610d0482610c6b565b818152610d1360208501610c83565b6020820152610d2460408501610c83565b6040820152610d3560608501610c83565b6060820152610d4660808501610c93565b6080820152610d5760a08501610c83565b60a0820152610d6860c08501610c93565b60c0820152610d7960e08501610caa565b60e0820152505092915050565b803560ff81168114610c8e57600080fd5b600060608284031215610da957600080fd5b6040516060810181811067ffffffffffffffff82111715610dcc57610dcc610c55565b604052905080610ddb83610d86565b815260208301356020820152604083013560408201525092915050565b60008060008060006102e08688031215610e1157600080fd5b610e1b8787610cb9565b9450610e2b876101008801610d97565b9350610e3b876101608801610cb9565b9250610e4b876102608801610d97565b91506102c0860135610e5c81610c6b565b809150509295509295909350565b600060208284031215610e7c57600080fd5b5035919050565b600060608284031215610e9557600080fd5b82601f830112610ea457600080fd5b6040516060810181811067ffffffffffffffff82111715610ec757610ec7610c55565b604052806060840185811115610edc57600080fd5b845b81811015610efd57610eef81610d86565b835260209283019201610ede565b509195945050505050565b60608101818360005b6003811015610f3357815160ff16835260209283019290910190600101610f11565b50505092915050565b600080600060608486031215610f5157600080fd5b610f5a84610c93565b92506020840135610f6a81610c6b565b91506040840135610f7a81610c6b565b809150509250925092565b600060208284031215610f9757600080fd5b815180151581146108c757600080fd5b634e487b7160e01b600052601160045260246000fd5b600060ff821660ff84168060ff03821115610fda57610fda610fa7565b019392505050565b60006001600160801b038083168185168183048111821515161561100857611008610fa7565b02949350505050565b60006001600160801b038084168061103957634e487b7160e01b600052601260045260246000fd5b92169190910492915050565b634e487b7160e01b600052602160045260246000fd5b6001600160a01b0389811682528881166020830152878116604083015286811660608301526001600160801b03868116608084015290851660a0830152831660c08201526101008101600283106110c257634e487b7160e01b600052602160045260246000fd5b8260e0830152999850505050505050505056fea2646970667358221220391cc48262a3e5b14291ae855359bc2fd50ff5ca62875d4ed3bbe96c66533d1864736f6c63430008090033",
  "linkReferences": {},
  "deployedLinkReferences": {}
}